{
  "_format": "hh-sol-artifact-1",
  "contractName": "CodersNFT",
  "sourceName": "contracts/CodersNFT.sol",
  "abi": [
    {
      "inputs": [],
      "stateMutability": "nonpayable",
      "type": "constructor"
    },
    {
      "anonymous": false,
      "inputs": [
        {
          "indexed": true,
          "internalType": "address",
          "name": "owner",
          "type": "address"
        },
        {
          "indexed": true,
          "internalType": "address",
          "name": "approved",
          "type": "address"
        },
        {
          "indexed": true,
          "internalType": "uint256",
          "name": "tokenId",
          "type": "uint256"
        }
      ],
      "name": "Approval",
      "type": "event"
    },
    {
      "anonymous": false,
      "inputs": [
        {
          "indexed": true,
          "internalType": "address",
          "name": "owner",
          "type": "address"
        },
        {
          "indexed": true,
          "internalType": "address",
          "name": "operator",
          "type": "address"
        },
        {
          "indexed": false,
          "internalType": "bool",
          "name": "approved",
          "type": "bool"
        }
      ],
      "name": "ApprovalForAll",
      "type": "event"
    },
    {
      "anonymous": false,
      "inputs": [
        {
          "indexed": true,
          "internalType": "address",
          "name": "from",
          "type": "address"
        },
        {
          "indexed": true,
          "internalType": "address",
          "name": "to",
          "type": "address"
        },
        {
          "indexed": true,
          "internalType": "uint256",
          "name": "tokenId",
          "type": "uint256"
        }
      ],
      "name": "Transfer",
      "type": "event"
    },
    {
      "inputs": [],
      "name": "_tokenIdCounter",
      "outputs": [
        {
          "internalType": "uint256",
          "name": "_value",
          "type": "uint256"
        }
      ],
      "stateMutability": "view",
      "type": "function"
    },
    {
      "inputs": [
        {
          "internalType": "address",
          "name": "walletToAdd",
          "type": "address"
        }
      ],
      "name": "addToWhitelist",
      "outputs": [],
      "stateMutability": "nonpayable",
      "type": "function"
    },
    {
      "inputs": [],
      "name": "admin",
      "outputs": [
        {
          "internalType": "address payable",
          "name": "",
          "type": "address"
        }
      ],
      "stateMutability": "view",
      "type": "function"
    },
    {
      "inputs": [
        {
          "internalType": "address",
          "name": "to",
          "type": "address"
        },
        {
          "internalType": "uint256",
          "name": "tokenId",
          "type": "uint256"
        }
      ],
      "name": "approve",
      "outputs": [],
      "stateMutability": "nonpayable",
      "type": "function"
    },
    {
      "inputs": [
        {
          "internalType": "address",
          "name": "owner",
          "type": "address"
        }
      ],
      "name": "balanceOf",
      "outputs": [
        {
          "internalType": "uint256",
          "name": "",
          "type": "uint256"
        }
      ],
      "stateMutability": "view",
      "type": "function"
    },
    {
      "inputs": [
        {
          "internalType": "uint256",
          "name": "tokenId",
          "type": "uint256"
        }
      ],
      "name": "burn",
      "outputs": [],
      "stateMutability": "nonpayable",
      "type": "function"
    },
    {
      "inputs": [],
      "name": "feeAccount",
      "outputs": [
        {
          "internalType": "address payable",
          "name": "",
          "type": "address"
        }
      ],
      "stateMutability": "view",
      "type": "function"
    },
    {
      "inputs": [
        {
          "internalType": "uint256",
          "name": "tokenId",
          "type": "uint256"
        }
      ],
      "name": "getApproved",
      "outputs": [
        {
          "internalType": "address",
          "name": "",
          "type": "address"
        }
      ],
      "stateMutability": "view",
      "type": "function"
    },
    {
      "inputs": [
        {
          "internalType": "address",
          "name": "owner",
          "type": "address"
        },
        {
          "internalType": "address",
          "name": "operator",
          "type": "address"
        }
      ],
      "name": "isApprovedForAll",
      "outputs": [
        {
          "internalType": "bool",
          "name": "",
          "type": "bool"
        }
      ],
      "stateMutability": "view",
      "type": "function"
    },
    {
      "inputs": [],
      "name": "isContractLive",
      "outputs": [
        {
          "internalType": "bool",
          "name": "",
          "type": "bool"
        }
      ],
      "stateMutability": "view",
      "type": "function"
    },
    {
      "inputs": [
        {
          "internalType": "address",
          "name": "",
          "type": "address"
        }
      ],
      "name": "isOnWhitelist",
      "outputs": [
        {
          "internalType": "bool",
          "name": "",
          "type": "bool"
        }
      ],
      "stateMutability": "view",
      "type": "function"
    },
    {
      "inputs": [],
      "name": "isWLMintOn",
      "outputs": [
        {
          "internalType": "bool",
          "name": "",
          "type": "bool"
        }
      ],
      "stateMutability": "view",
      "type": "function"
    },
    {
      "inputs": [
        {
          "internalType": "address",
          "name": "to",
          "type": "address"
        }
      ],
      "name": "mint",
      "outputs": [],
      "stateMutability": "payable",
      "type": "function"
    },
    {
      "inputs": [],
      "name": "mintLimit",
      "outputs": [
        {
          "internalType": "uint256",
          "name": "",
          "type": "uint256"
        }
      ],
      "stateMutability": "view",
      "type": "function"
    },
    {
      "inputs": [],
      "name": "mintPrice",
      "outputs": [
        {
          "internalType": "uint256",
          "name": "",
          "type": "uint256"
        }
      ],
      "stateMutability": "view",
      "type": "function"
    },
    {
      "inputs": [],
      "name": "name",
      "outputs": [
        {
          "internalType": "string",
          "name": "",
          "type": "string"
        }
      ],
      "stateMutability": "view",
      "type": "function"
    },
    {
      "inputs": [
        {
          "internalType": "uint256",
          "name": "tokenId",
          "type": "uint256"
        }
      ],
      "name": "ownerOf",
      "outputs": [
        {
          "internalType": "address",
          "name": "",
          "type": "address"
        }
      ],
      "stateMutability": "view",
      "type": "function"
    },
    {
      "inputs": [],
      "name": "pauseContract",
      "outputs": [],
      "stateMutability": "nonpayable",
      "type": "function"
    },
    {
      "inputs": [
        {
          "internalType": "address",
          "name": "walletToRemove",
          "type": "address"
        }
      ],
      "name": "removeFromWhitelist",
      "outputs": [],
      "stateMutability": "nonpayable",
      "type": "function"
    },
    {
      "inputs": [],
      "name": "returnTokenCount",
      "outputs": [
        {
          "internalType": "uint256",
          "name": "",
          "type": "uint256"
        }
      ],
      "stateMutability": "view",
      "type": "function"
    },
    {
      "inputs": [
        {
          "internalType": "address",
          "name": "from",
          "type": "address"
        },
        {
          "internalType": "address",
          "name": "to",
          "type": "address"
        },
        {
          "internalType": "uint256",
          "name": "tokenId",
          "type": "uint256"
        }
      ],
      "name": "safeTransferFrom",
      "outputs": [],
      "stateMutability": "nonpayable",
      "type": "function"
    },
    {
      "inputs": [
        {
          "internalType": "address",
          "name": "from",
          "type": "address"
        },
        {
          "internalType": "address",
          "name": "to",
          "type": "address"
        },
        {
          "internalType": "uint256",
          "name": "tokenId",
          "type": "uint256"
        },
        {
          "internalType": "bytes",
          "name": "data",
          "type": "bytes"
        }
      ],
      "name": "safeTransferFrom",
      "outputs": [],
      "stateMutability": "nonpayable",
      "type": "function"
    },
    {
      "inputs": [
        {
          "internalType": "address",
          "name": "operator",
          "type": "address"
        },
        {
          "internalType": "bool",
          "name": "approved",
          "type": "bool"
        }
      ],
      "name": "setApprovalForAll",
      "outputs": [],
      "stateMutability": "nonpayable",
      "type": "function"
    },
    {
      "inputs": [
        {
          "internalType": "uint256",
          "name": "newMintLimit",
          "type": "uint256"
        }
      ],
      "name": "setMintLimit",
      "outputs": [],
      "stateMutability": "nonpayable",
      "type": "function"
    },
    {
      "inputs": [
        {
          "internalType": "uint256",
          "name": "newWhitelistPrice",
          "type": "uint256"
        }
      ],
      "name": "setMintPrice",
      "outputs": [],
      "stateMutability": "nonpayable",
      "type": "function"
    },
    {
      "inputs": [
        {
          "internalType": "uint256",
          "name": "newMintLimit",
          "type": "uint256"
        }
      ],
      "name": "setWhitelistMintLimit",
      "outputs": [],
      "stateMutability": "nonpayable",
      "type": "function"
    },
    {
      "inputs": [
        {
          "internalType": "uint256",
          "name": "newWhitelistPrice",
          "type": "uint256"
        }
      ],
      "name": "setWhitelistPrice",
      "outputs": [],
      "stateMutability": "nonpayable",
      "type": "function"
    },
    {
      "inputs": [
        {
          "internalType": "bytes4",
          "name": "interfaceId",
          "type": "bytes4"
        }
      ],
      "name": "supportsInterface",
      "outputs": [
        {
          "internalType": "bool",
          "name": "",
          "type": "bool"
        }
      ],
      "stateMutability": "view",
      "type": "function"
    },
    {
      "inputs": [],
      "name": "symbol",
      "outputs": [
        {
          "internalType": "string",
          "name": "",
          "type": "string"
        }
      ],
      "stateMutability": "view",
      "type": "function"
    },
    {
      "inputs": [],
      "name": "tokenLimit",
      "outputs": [
        {
          "internalType": "uint256",
          "name": "",
          "type": "uint256"
        }
      ],
      "stateMutability": "view",
      "type": "function"
    },
    {
      "inputs": [
        {
          "internalType": "uint256",
          "name": "tokenId",
          "type": "uint256"
        }
      ],
      "name": "tokenURI",
      "outputs": [
        {
          "internalType": "string",
          "name": "",
          "type": "string"
        }
      ],
      "stateMutability": "view",
      "type": "function"
    },
    {
      "inputs": [
        {
          "internalType": "address",
          "name": "from",
          "type": "address"
        },
        {
          "internalType": "address",
          "name": "to",
          "type": "address"
        },
        {
          "internalType": "uint256",
          "name": "tokenId",
          "type": "uint256"
        }
      ],
      "name": "transferFrom",
      "outputs": [],
      "stateMutability": "nonpayable",
      "type": "function"
    },
    {
      "inputs": [],
      "name": "turnWLMintOff",
      "outputs": [],
      "stateMutability": "nonpayable",
      "type": "function"
    },
    {
      "inputs": [],
      "name": "turnWLMintOn",
      "outputs": [],
      "stateMutability": "nonpayable",
      "type": "function"
    },
    {
      "inputs": [],
      "name": "unpauseContract",
      "outputs": [],
      "stateMutability": "nonpayable",
      "type": "function"
    },
    {
      "inputs": [
        {
          "internalType": "uint256",
          "name": "",
          "type": "uint256"
        }
      ],
      "name": "whitelistAddresses",
      "outputs": [
        {
          "internalType": "address",
          "name": "",
          "type": "address"
        }
      ],
      "stateMutability": "view",
      "type": "function"
    },
    {
      "inputs": [
        {
          "internalType": "address",
          "name": "to",
          "type": "address"
        }
      ],
      "name": "whitelistMint",
      "outputs": [],
      "stateMutability": "payable",
      "type": "function"
    },
    {
      "inputs": [],
      "name": "whitelistMintLimit",
      "outputs": [
        {
          "internalType": "uint256",
          "name": "",
          "type": "uint256"
        }
      ],
      "stateMutability": "view",
      "type": "function"
    },
    {
      "inputs": [],
      "name": "whitelistMintPrice",
      "outputs": [
        {
          "internalType": "uint256",
          "name": "",
          "type": "uint256"
        }
      ],
      "stateMutability": "view",
      "type": "function"
    }
  ],
  "bytecode": "0x6080604052610153600a55604051806080016040528060448152602001620047a960449139600e90816200003491906200041c565b506001601360006101000a81548160ff0219169083151502179055503480156200005d57600080fd5b506040518060400160405280600e81526020017f436f646572732044414f204e46540000000000000000000000000000000000008152506040518060400160405280600381526020017f43444e00000000000000000000000000000000000000000000000000000000008152508160009081620000db91906200041c565b508060019081620000ed91906200041c565b50505033600860006101000a81548173ffffffffffffffffffffffffffffffffffffffff021916908373ffffffffffffffffffffffffffffffffffffffff16021790555033600960006101000a81548173ffffffffffffffffffffffffffffffffffffffff021916908373ffffffffffffffffffffffffffffffffffffffff1602179055506001600d60006101000a81548160ff021916908315150217905550670de0b6b3a7640000600b8190555062000503565b600081519050919050565b7f4e487b7100000000000000000000000000000000000000000000000000000000600052604160045260246000fd5b7f4e487b7100000000000000000000000000000000000000000000000000000000600052602260045260246000fd5b600060028204905060018216806200022457607f821691505b6020821081036200023a5762000239620001dc565b5b50919050565b60008190508160005260206000209050919050565b60006020601f8301049050919050565b600082821b905092915050565b600060088302620002a47fffffffffffffffffffffffffffffffffffffffffffffffffffffffffffffffff8262000265565b620002b0868362000265565b95508019841693508086168417925050509392505050565b6000819050919050565b6000819050919050565b6000620002fd620002f7620002f184620002c8565b620002d2565b620002c8565b9050919050565b6000819050919050565b6200031983620002dc565b62000331620003288262000304565b84845462000272565b825550505050565b600090565b6200034862000339565b620003558184846200030e565b505050565b5b818110156200037d57620003716000826200033e565b6001810190506200035b565b5050565b601f821115620003cc57620003968162000240565b620003a18462000255565b81016020851015620003b1578190505b620003c9620003c08562000255565b8301826200035a565b50505b505050565b600082821c905092915050565b6000620003f160001984600802620003d1565b1980831691505092915050565b60006200040c8383620003de565b9150826002028217905092915050565b6200042782620001a2565b67ffffffffffffffff811115620004435762000442620001ad565b5b6200044f82546200020b565b6200045c82828562000381565b600060209050601f8311600181146200049457600084156200047f578287015190505b6200048b8582620003fe565b865550620004fb565b601f198416620004a48662000240565b60005b82811015620004ce57848901518255600182019150602085019450602081019050620004a7565b86831015620004ee5784890151620004ea601f891682620003de565b8355505b6001600288020188555050505b505050505050565b61429680620005136000396000f3fe6080604052600436106102305760003560e01c80636a6278421161012e578063b33712c5116100ab578063ddd1783a1161006f578063ddd1783a146107e7578063e43252d714610812578063e985e9c51461083b578063f4a0a52814610878578063f851a440146108a157610230565b8063b33712c514610737578063b88d4fde1461074e578063bf610d7e14610777578063c87b56dd14610793578063dafe7044146107d057610230565b80638ab1d681116100f25780638ab1d6811461066657806395d89b411461068f578063996517cf146106ba5780639e6a1d7d146106e5578063a22cb4651461070e57610230565b80636a6278421461058e57806370a08231146105aa578063717d57d3146105e757806384c4bd4b1461061057806385315fc31461063b57610230565b80633dc7fdd6116101bc57806356c7627e1161018057806356c7627e146104935780635d1235d4146104be5780636352211e146104fb57806365e17c9d146105385780636817c76c1461056357610230565b80633dc7fdd6146103d457806342842e0e146103ff57806342966c6814610428578063439766ce146104515780634ae910bf1461046857610230565b8063097277dd11610203578063097277dd1461030357806323b872dd1461031a57806335c6aaf814610343578063381b965c1461036e5780633a3ab6721461039757610230565b806301ffc9a71461023557806306fdde0314610272578063081812fc1461029d578063095ea7b3146102da575b600080fd5b34801561024157600080fd5b5061025c60048036038101906102579190612c78565b6108cc565b6040516102699190612cc0565b60405180910390f35b34801561027e57600080fd5b506102876109ae565b6040516102949190612d6b565b60405180910390f35b3480156102a957600080fd5b506102c460048036038101906102bf9190612dc3565b610a40565b6040516102d19190612e31565b60405180910390f35b3480156102e657600080fd5b5061030160048036038101906102fc9190612e78565b610a86565b005b34801561030f57600080fd5b50610318610b9d565b005b34801561032657600080fd5b50610341600480360381019061033c9190612eb8565b610c4a565b005b34801561034f57600080fd5b50610358610caa565b6040516103659190612f1a565b60405180910390f35b34801561037a57600080fd5b5061039560048036038101906103909190612dc3565b610cb0565b005b3480156103a357600080fd5b506103be60048036038101906103b99190612f35565b610d4a565b6040516103cb9190612cc0565b60405180910390f35b3480156103e057600080fd5b506103e9610d6a565b6040516103f69190612cc0565b60405180910390f35b34801561040b57600080fd5b5061042660048036038101906104219190612eb8565b610d7d565b005b34801561043457600080fd5b5061044f600480360381019061044a9190612dc3565b610d9d565b005b34801561045d57600080fd5b50610466610e25565b005b34801561047457600080fd5b5061047d610ed2565b60405161048a9190612f1a565b60405180910390f35b34801561049f57600080fd5b506104a8610ee3565b6040516104b59190612f1a565b60405180910390f35b3480156104ca57600080fd5b506104e560048036038101906104e09190612dc3565b610ee9565b6040516104f29190612e31565b60405180910390f35b34801561050757600080fd5b50610522600480360381019061051d9190612dc3565b610f28565b60405161052f9190612e31565b60405180910390f35b34801561054457600080fd5b5061054d610fd9565b60405161055a9190612f83565b60405180910390f35b34801561056f57600080fd5b50610578610fff565b6040516105859190612f1a565b60405180910390f35b6105a860048036038101906105a39190612f35565b611005565b005b3480156105b657600080fd5b506105d160048036038101906105cc9190612f35565b6111b6565b6040516105de9190612f1a565b60405180910390f35b3480156105f357600080fd5b5061060e60048036038101906106099190612dc3565b61126d565b005b34801561061c57600080fd5b50610625611307565b6040516106329190612f1a565b60405180910390f35b34801561064757600080fd5b50610650611313565b60405161065d9190612cc0565b60405180910390f35b34801561067257600080fd5b5061068d60048036038101906106889190612f35565b611326565b005b34801561069b57600080fd5b506106a4611411565b6040516106b19190612d6b565b60405180910390f35b3480156106c657600080fd5b506106cf6114a3565b6040516106dc9190612f1a565b60405180910390f35b3480156106f157600080fd5b5061070c60048036038101906107079190612dc3565b6114a9565b005b34801561071a57600080fd5b5061073560048036038101906107309190612fca565b611543565b005b34801561074357600080fd5b5061074c611559565b005b34801561075a57600080fd5b506107756004803603810190610770919061313f565b611606565b005b610791600480360381019061078c9190612f35565b611668565b005b34801561079f57600080fd5b506107ba60048036038101906107b59190612dc3565b6118ac565b6040516107c79190612d6b565b60405180910390f35b3480156107dc57600080fd5b506107e56118be565b005b3480156107f357600080fd5b506107fc61196b565b6040516108099190612f1a565b60405180910390f35b34801561081e57600080fd5b5061083960048036038101906108349190612f35565b611971565b005b34801561084757600080fd5b50610862600480360381019061085d91906131c2565b611a5c565b60405161086f9190612cc0565b60405180910390f35b34801561088457600080fd5b5061089f600480360381019061089a9190612dc3565b611af0565b005b3480156108ad57600080fd5b506108b6611b8a565b6040516108c39190612f83565b60405180910390f35b60007f80ac58cd000000000000000000000000000000000000000000000000000000007bffffffffffffffffffffffffffffffffffffffffffffffffffffffff1916827bffffffffffffffffffffffffffffffffffffffffffffffffffffffff1916148061099757507f5b5e139f000000000000000000000000000000000000000000000000000000007bffffffffffffffffffffffffffffffffffffffffffffffffffffffff1916827bffffffffffffffffffffffffffffffffffffffffffffffffffffffff1916145b806109a757506109a682611bb0565b5b9050919050565b6060600080546109bd90613231565b80601f01602080910402602001604051908101604052809291908181526020018280546109e990613231565b8015610a365780601f10610a0b57610100808354040283529160200191610a36565b820191906000526020600020905b815481529060010190602001808311610a1957829003601f168201915b5050505050905090565b6000610a4b82611c1a565b6004600083815260200190815260200160002060009054906101000a900473ffffffffffffffffffffffffffffffffffffffff169050919050565b6000610a9182610f28565b90508073ffffffffffffffffffffffffffffffffffffffff168373ffffffffffffffffffffffffffffffffffffffff1603610b01576040517f08c379a0000000000000000000000000000000000000000000000000000000008152600401610af8906132d4565b60405180910390fd5b8073ffffffffffffffffffffffffffffffffffffffff16610b20611c65565b73ffffffffffffffffffffffffffffffffffffffff161480610b4f5750610b4e81610b49611c65565b611a5c565b5b610b8e576040517f08c379a0000000000000000000000000000000000000000000000000000000008152600401610b8590613366565b60405180910390fd5b610b988383611c6d565b505050565b600860009054906101000a900473ffffffffffffffffffffffffffffffffffffffff1673ffffffffffffffffffffffffffffffffffffffff163373ffffffffffffffffffffffffffffffffffffffff1614610c2d576040517f08c379a0000000000000000000000000000000000000000000000000000000008152600401610c24906133d2565b60405180910390fd5b6000601360006101000a81548160ff021916908315150217905550565b610c5b610c55611c65565b82611d26565b610c9a576040517f08c379a0000000000000000000000000000000000000000000000000000000008152600401610c9190613464565b60405180910390fd5b610ca5838383611dbb565b505050565b60125481565b600860009054906101000a900473ffffffffffffffffffffffffffffffffffffffff1673ffffffffffffffffffffffffffffffffffffffff163373ffffffffffffffffffffffffffffffffffffffff1614610d40576040517f08c379a0000000000000000000000000000000000000000000000000000000008152600401610d37906133d2565b60405180910390fd5b8060108190555050565b60116020528060005260406000206000915054906101000a900460ff1681565b601360009054906101000a900460ff1681565b610d9883838360405180602001604052806000815250611606565b505050565b6000610da882610f28565b90503373ffffffffffffffffffffffffffffffffffffffff168173ffffffffffffffffffffffffffffffffffffffff1614610e18576040517f08c379a0000000000000000000000000000000000000000000000000000000008152600401610e0f906134d0565b60405180910390fd5b610e2182612021565b5050565b600860009054906101000a900473ffffffffffffffffffffffffffffffffffffffff1673ffffffffffffffffffffffffffffffffffffffff163373ffffffffffffffffffffffffffffffffffffffff1614610eb5576040517f08c379a0000000000000000000000000000000000000000000000000000000008152600401610eac906133d2565b60405180910390fd5b6000600d60006101000a81548160ff021916908315150217905550565b6000610ede6007612083565b905090565b600a5481565b600f8181548110610ef957600080fd5b906000526020600020016000915054906101000a900473ffffffffffffffffffffffffffffffffffffffff1681565b6000806002600084815260200190815260200160002060009054906101000a900473ffffffffffffffffffffffffffffffffffffffff169050600073ffffffffffffffffffffffffffffffffffffffff168173ffffffffffffffffffffffffffffffffffffffff1603610fd0576040517f08c379a0000000000000000000000000000000000000000000000000000000008152600401610fc79061353c565b60405180910390fd5b80915050919050565b600960009054906101000a900473ffffffffffffffffffffffffffffffffffffffff1681565b600b5481565b60011515600d60009054906101000a900460ff1615151461105b576040517f08c379a0000000000000000000000000000000000000000000000000000000008152600401611052906135a8565b60405180910390fd5b600b543410156110a0576040517f08c379a000000000000000000000000000000000000000000000000000000000815260040161109790613614565b60405180910390fd5b600a546110ad6007612083565b106110ed576040517f08c379a00000000000000000000000000000000000000000000000000000000081526004016110e490613680565b60405180910390fd5b600860009054906101000a900473ffffffffffffffffffffffffffffffffffffffff1673ffffffffffffffffffffffffffffffffffffffff166108fc349081150290604051600060405180830381858888f19350505050158015611155573d6000803e3d6000fd5b506111606007612091565b600061116c6007612083565b90506000600e61117b836120a7565b60405160200161118c9291906137c0565b60405160208183030381529060405290506111a78383612207565b6111b18282612225565b505050565b60008073ffffffffffffffffffffffffffffffffffffffff168273ffffffffffffffffffffffffffffffffffffffff1603611226576040517f08c379a000000000000000000000000000000000000000000000000000000000815260040161121d90613861565b60405180910390fd5b600360008373ffffffffffffffffffffffffffffffffffffffff1673ffffffffffffffffffffffffffffffffffffffff168152602001908152602001600020549050919050565b600860009054906101000a900473ffffffffffffffffffffffffffffffffffffffff1673ffffffffffffffffffffffffffffffffffffffff163373ffffffffffffffffffffffffffffffffffffffff16146112fd576040517f08c379a00000000000000000000000000000000000000000000000000000000081526004016112f4906133d2565b60405180910390fd5b8060128190555050565b60078060000154905081565b600d60009054906101000a900460ff1681565b600860009054906101000a900473ffffffffffffffffffffffffffffffffffffffff1673ffffffffffffffffffffffffffffffffffffffff163373ffffffffffffffffffffffffffffffffffffffff16146113b6576040517f08c379a00000000000000000000000000000000000000000000000000000000081526004016113ad906133d2565b60405180910390fd5b6000601160008373ffffffffffffffffffffffffffffffffffffffff1673ffffffffffffffffffffffffffffffffffffffff16815260200190815260200160002060006101000a81548160ff02191690831515021790555050565b60606001805461142090613231565b80601f016020809104026020016040519081016040528092919081815260200182805461144c90613231565b80156114995780601f1061146e57610100808354040283529160200191611499565b820191906000526020600020905b81548152906001019060200180831161147c57829003601f168201915b5050505050905090565b600c5481565b600860009054906101000a900473ffffffffffffffffffffffffffffffffffffffff1673ffffffffffffffffffffffffffffffffffffffff163373ffffffffffffffffffffffffffffffffffffffff1614611539576040517f08c379a0000000000000000000000000000000000000000000000000000000008152600401611530906133d2565b60405180910390fd5b80600c8190555050565b61155561154e611c65565b8383612292565b5050565b600860009054906101000a900473ffffffffffffffffffffffffffffffffffffffff1673ffffffffffffffffffffffffffffffffffffffff163373ffffffffffffffffffffffffffffffffffffffff16146115e9576040517f08c379a00000000000000000000000000000000000000000000000000000000081526004016115e0906133d2565b60405180910390fd5b6001600d60006101000a81548160ff021916908315150217905550565b611617611611611c65565b83611d26565b611656576040517f08c379a000000000000000000000000000000000000000000000000000000000815260040161164d90613464565b60405180910390fd5b611662848484846123fe565b50505050565b60011515601160003373ffffffffffffffffffffffffffffffffffffffff1673ffffffffffffffffffffffffffffffffffffffff16815260200190815260200160002060009054906101000a900460ff161515146116fb576040517f08c379a00000000000000000000000000000000000000000000000000000000081526004016116f2906138cd565b60405180910390fd5b60011515601360009054906101000a900460ff16151514611751576040517f08c379a000000000000000000000000000000000000000000000000000000000815260040161174890613939565b60405180910390fd5b601254341015611796576040517f08c379a000000000000000000000000000000000000000000000000000000000815260040161178d90613614565b60405180910390fd5b6010546117a36007612083565b106117e3576040517f08c379a00000000000000000000000000000000000000000000000000000000081526004016117da906139a5565b60405180910390fd5b600860009054906101000a900473ffffffffffffffffffffffffffffffffffffffff1673ffffffffffffffffffffffffffffffffffffffff166108fc349081150290604051600060405180830381858888f1935050505015801561184b573d6000803e3d6000fd5b506118566007612091565b60006118626007612083565b90506000600e611871836120a7565b6040516020016118829291906137c0565b604051602081830303815290604052905061189d8383612207565b6118a78282612225565b505050565b60606118b78261245a565b9050919050565b600860009054906101000a900473ffffffffffffffffffffffffffffffffffffffff1673ffffffffffffffffffffffffffffffffffffffff163373ffffffffffffffffffffffffffffffffffffffff161461194e576040517f08c379a0000000000000000000000000000000000000000000000000000000008152600401611945906133d2565b60405180910390fd5b6001601360006101000a81548160ff021916908315150217905550565b60105481565b600860009054906101000a900473ffffffffffffffffffffffffffffffffffffffff1673ffffffffffffffffffffffffffffffffffffffff163373ffffffffffffffffffffffffffffffffffffffff1614611a01576040517f08c379a00000000000000000000000000000000000000000000000000000000081526004016119f8906133d2565b60405180910390fd5b6001601160008373ffffffffffffffffffffffffffffffffffffffff1673ffffffffffffffffffffffffffffffffffffffff16815260200190815260200160002060006101000a81548160ff02191690831515021790555050565b6000600560008473ffffffffffffffffffffffffffffffffffffffff1673ffffffffffffffffffffffffffffffffffffffff16815260200190815260200160002060008373ffffffffffffffffffffffffffffffffffffffff1673ffffffffffffffffffffffffffffffffffffffff16815260200190815260200160002060009054906101000a900460ff16905092915050565b600860009054906101000a900473ffffffffffffffffffffffffffffffffffffffff1673ffffffffffffffffffffffffffffffffffffffff163373ffffffffffffffffffffffffffffffffffffffff1614611b80576040517f08c379a0000000000000000000000000000000000000000000000000000000008152600401611b77906133d2565b60405180910390fd5b80600b8190555050565b600860009054906101000a900473ffffffffffffffffffffffffffffffffffffffff1681565b60007f01ffc9a7000000000000000000000000000000000000000000000000000000007bffffffffffffffffffffffffffffffffffffffffffffffffffffffff1916827bffffffffffffffffffffffffffffffffffffffffffffffffffffffff1916149050919050565b611c238161256c565b611c62576040517f08c379a0000000000000000000000000000000000000000000000000000000008152600401611c599061353c565b60405180910390fd5b50565b600033905090565b816004600083815260200190815260200160002060006101000a81548173ffffffffffffffffffffffffffffffffffffffff021916908373ffffffffffffffffffffffffffffffffffffffff160217905550808273ffffffffffffffffffffffffffffffffffffffff16611ce083610f28565b73ffffffffffffffffffffffffffffffffffffffff167f8c5be1e5ebec7d5bd14f71427d1e84f3dd0314c0f7b2291e5b200ac8c7c3b92560405160405180910390a45050565b600080611d3283610f28565b90508073ffffffffffffffffffffffffffffffffffffffff168473ffffffffffffffffffffffffffffffffffffffff161480611d745750611d738185611a5c565b5b80611db257508373ffffffffffffffffffffffffffffffffffffffff16611d9a84610a40565b73ffffffffffffffffffffffffffffffffffffffff16145b91505092915050565b8273ffffffffffffffffffffffffffffffffffffffff16611ddb82610f28565b73ffffffffffffffffffffffffffffffffffffffff1614611e31576040517f08c379a0000000000000000000000000000000000000000000000000000000008152600401611e2890613a37565b60405180910390fd5b600073ffffffffffffffffffffffffffffffffffffffff168273ffffffffffffffffffffffffffffffffffffffff1603611ea0576040517f08c379a0000000000000000000000000000000000000000000000000000000008152600401611e9790613ac9565b60405180910390fd5b611eab8383836125d8565b611eb6600082611c6d565b6001600360008573ffffffffffffffffffffffffffffffffffffffff1673ffffffffffffffffffffffffffffffffffffffff1681526020019081526020016000206000828254611f069190613b18565b925050819055506001600360008473ffffffffffffffffffffffffffffffffffffffff1673ffffffffffffffffffffffffffffffffffffffff1681526020019081526020016000206000828254611f5d9190613b4c565b92505081905550816002600083815260200190815260200160002060006101000a81548173ffffffffffffffffffffffffffffffffffffffff021916908373ffffffffffffffffffffffffffffffffffffffff160217905550808273ffffffffffffffffffffffffffffffffffffffff168473ffffffffffffffffffffffffffffffffffffffff167fddf252ad1be2c89b69c2b068fc378daa952ba7f163c4a11628f55a4df523b3ef60405160405180910390a461201c8383836125dd565b505050565b60011515600d60009054906101000a900460ff16151514612077576040517f08c379a000000000000000000000000000000000000000000000000000000000815260040161206e906135a8565b60405180910390fd5b612080816125e2565b50565b600081600001549050919050565b6001816000016000828254019250508190555050565b6060600082036120ee576040518060400160405280600181526020017f30000000000000000000000000000000000000000000000000000000000000008152509050612202565b600082905060005b6000821461212057808061210990613b80565b915050600a826121199190613bf7565b91506120f6565b60008167ffffffffffffffff81111561213c5761213b613014565b5b6040519080825280601f01601f19166020018201604052801561216e5781602001600182028036833780820191505090505b5090505b600085146121fb576001826121879190613b18565b9150600a856121969190613c28565b60306121a29190613b4c565b60f81b8183815181106121b8576121b7613c59565b5b60200101907effffffffffffffffffffffffffffffffffffffffffffffffffffffffffffff1916908160001a905350600a856121f49190613bf7565b9450612172565b8093505050505b919050565b612221828260405180602001604052806000815250612635565b5050565b61222e8261256c565b61226d576040517f08c379a000000000000000000000000000000000000000000000000000000000815260040161226490613cfa565b60405180910390fd5b8060066000848152602001908152602001600020908161228d9190613eb1565b505050565b8173ffffffffffffffffffffffffffffffffffffffff168373ffffffffffffffffffffffffffffffffffffffff1603612300576040517f08c379a00000000000000000000000000000000000000000000000000000000081526004016122f790613fcf565b60405180910390fd5b80600560008573ffffffffffffffffffffffffffffffffffffffff1673ffffffffffffffffffffffffffffffffffffffff16815260200190815260200160002060008473ffffffffffffffffffffffffffffffffffffffff1673ffffffffffffffffffffffffffffffffffffffff16815260200190815260200160002060006101000a81548160ff0219169083151502179055508173ffffffffffffffffffffffffffffffffffffffff168373ffffffffffffffffffffffffffffffffffffffff167f17307eab39ab6107e8899845ad3d59bd9653f200f220920489ca2b5937696c31836040516123f19190612cc0565b60405180910390a3505050565b612409848484611dbb565b61241584848484612690565b612454576040517f08c379a000000000000000000000000000000000000000000000000000000000815260040161244b90614061565b60405180910390fd5b50505050565b606061246582611c1a565b600060066000848152602001908152602001600020805461248590613231565b80601f01602080910402602001604051908101604052809291908181526020018280546124b190613231565b80156124fe5780601f106124d3576101008083540402835291602001916124fe565b820191906000526020600020905b8154815290600101906020018083116124e157829003601f168201915b50505050509050600061250f612817565b90506000815103612524578192505050612567565b600082511115612559578082604051602001612541929190614081565b60405160208183030381529060405292505050612567565b6125628461282e565b925050505b919050565b60008073ffffffffffffffffffffffffffffffffffffffff166002600084815260200190815260200160002060009054906101000a900473ffffffffffffffffffffffffffffffffffffffff1673ffffffffffffffffffffffffffffffffffffffff1614159050919050565b505050565b505050565b6125eb81612896565b600060066000838152602001908152602001600020805461260b90613231565b905014612632576006600082815260200190815260200160002060006126319190612baf565b5b50565b61263f83836129b3565b61264c6000848484612690565b61268b576040517f08c379a000000000000000000000000000000000000000000000000000000000815260040161268290614061565b60405180910390fd5b505050565b60006126b18473ffffffffffffffffffffffffffffffffffffffff16612b8c565b1561280a578373ffffffffffffffffffffffffffffffffffffffff1663150b7a026126da611c65565b8786866040518563ffffffff1660e01b81526004016126fc94939291906140fa565b6020604051808303816000875af192505050801561273857506040513d601f19601f82011682018060405250810190612735919061415b565b60015b6127ba573d8060008114612768576040519150601f19603f3d011682016040523d82523d6000602084013e61276d565b606091505b5060008151036127b2576040517f08c379a00000000000000000000000000000000000000000000000000000000081526004016127a990614061565b60405180910390fd5b805181602001fd5b63150b7a0260e01b7bffffffffffffffffffffffffffffffffffffffffffffffffffffffff1916817bffffffffffffffffffffffffffffffffffffffffffffffffffffffff19161491505061280f565b600190505b949350505050565b606060405180602001604052806000815250905090565b606061283982611c1a565b6000612843612817565b90506000815111612863576040518060200160405280600081525061288e565b8061286d846120a7565b60405160200161287e929190614081565b6040516020818303038152906040525b915050919050565b60006128a182610f28565b90506128af816000846125d8565b6128ba600083611c6d565b6001600360008373ffffffffffffffffffffffffffffffffffffffff1673ffffffffffffffffffffffffffffffffffffffff168152602001908152602001600020600082825461290a9190613b18565b925050819055506002600083815260200190815260200160002060006101000a81549073ffffffffffffffffffffffffffffffffffffffff021916905581600073ffffffffffffffffffffffffffffffffffffffff168273ffffffffffffffffffffffffffffffffffffffff167fddf252ad1be2c89b69c2b068fc378daa952ba7f163c4a11628f55a4df523b3ef60405160405180910390a46129af816000846125dd565b5050565b600073ffffffffffffffffffffffffffffffffffffffff168273ffffffffffffffffffffffffffffffffffffffff1603612a22576040517f08c379a0000000000000000000000000000000000000000000000000000000008152600401612a19906141d4565b60405180910390fd5b612a2b8161256c565b15612a6b576040517f08c379a0000000000000000000000000000000000000000000000000000000008152600401612a6290614240565b60405180910390fd5b612a77600083836125d8565b6001600360008473ffffffffffffffffffffffffffffffffffffffff1673ffffffffffffffffffffffffffffffffffffffff1681526020019081526020016000206000828254612ac79190613b4c565b92505081905550816002600083815260200190815260200160002060006101000a81548173ffffffffffffffffffffffffffffffffffffffff021916908373ffffffffffffffffffffffffffffffffffffffff160217905550808273ffffffffffffffffffffffffffffffffffffffff16600073ffffffffffffffffffffffffffffffffffffffff167fddf252ad1be2c89b69c2b068fc378daa952ba7f163c4a11628f55a4df523b3ef60405160405180910390a4612b88600083836125dd565b5050565b6000808273ffffffffffffffffffffffffffffffffffffffff163b119050919050565b508054612bbb90613231565b6000825580601f10612bcd5750612bec565b601f016020900490600052602060002090810190612beb9190612bef565b5b50565b5b80821115612c08576000816000905550600101612bf0565b5090565b6000604051905090565b600080fd5b600080fd5b60007fffffffff0000000000000000000000000000000000000000000000000000000082169050919050565b612c5581612c20565b8114612c6057600080fd5b50565b600081359050612c7281612c4c565b92915050565b600060208284031215612c8e57612c8d612c16565b5b6000612c9c84828501612c63565b91505092915050565b60008115159050919050565b612cba81612ca5565b82525050565b6000602082019050612cd56000830184612cb1565b92915050565b600081519050919050565b600082825260208201905092915050565b60005b83811015612d15578082015181840152602081019050612cfa565b60008484015250505050565b6000601f19601f8301169050919050565b6000612d3d82612cdb565b612d478185612ce6565b9350612d57818560208601612cf7565b612d6081612d21565b840191505092915050565b60006020820190508181036000830152612d858184612d32565b905092915050565b6000819050919050565b612da081612d8d565b8114612dab57600080fd5b50565b600081359050612dbd81612d97565b92915050565b600060208284031215612dd957612dd8612c16565b5b6000612de784828501612dae565b91505092915050565b600073ffffffffffffffffffffffffffffffffffffffff82169050919050565b6000612e1b82612df0565b9050919050565b612e2b81612e10565b82525050565b6000602082019050612e466000830184612e22565b92915050565b612e5581612e10565b8114612e6057600080fd5b50565b600081359050612e7281612e4c565b92915050565b60008060408385031215612e8f57612e8e612c16565b5b6000612e9d85828601612e63565b9250506020612eae85828601612dae565b9150509250929050565b600080600060608486031215612ed157612ed0612c16565b5b6000612edf86828701612e63565b9350506020612ef086828701612e63565b9250506040612f0186828701612dae565b9150509250925092565b612f1481612d8d565b82525050565b6000602082019050612f2f6000830184612f0b565b92915050565b600060208284031215612f4b57612f4a612c16565b5b6000612f5984828501612e63565b91505092915050565b6000612f6d82612df0565b9050919050565b612f7d81612f62565b82525050565b6000602082019050612f986000830184612f74565b92915050565b612fa781612ca5565b8114612fb257600080fd5b50565b600081359050612fc481612f9e565b92915050565b60008060408385031215612fe157612fe0612c16565b5b6000612fef85828601612e63565b925050602061300085828601612fb5565b9150509250929050565b600080fd5b600080fd5b7f4e487b7100000000000000000000000000000000000000000000000000000000600052604160045260246000fd5b61304c82612d21565b810181811067ffffffffffffffff8211171561306b5761306a613014565b5b80604052505050565b600061307e612c0c565b905061308a8282613043565b919050565b600067ffffffffffffffff8211156130aa576130a9613014565b5b6130b382612d21565b9050602081019050919050565b82818337600083830152505050565b60006130e26130dd8461308f565b613074565b9050828152602081018484840111156130fe576130fd61300f565b5b6131098482856130c0565b509392505050565b600082601f8301126131265761312561300a565b5b81356131368482602086016130cf565b91505092915050565b6000806000806080858703121561315957613158612c16565b5b600061316787828801612e63565b945050602061317887828801612e63565b935050604061318987828801612dae565b925050606085013567ffffffffffffffff8111156131aa576131a9612c1b565b5b6131b687828801613111565b91505092959194509250565b600080604083850312156131d9576131d8612c16565b5b60006131e785828601612e63565b92505060206131f885828601612e63565b9150509250929050565b7f4e487b7100000000000000000000000000000000000000000000000000000000600052602260045260246000fd5b6000600282049050600182168061324957607f821691505b60208210810361325c5761325b613202565b5b50919050565b7f4552433732313a20617070726f76616c20746f2063757272656e74206f776e6560008201527f7200000000000000000000000000000000000000000000000000000000000000602082015250565b60006132be602183612ce6565b91506132c982613262565b604082019050919050565b600060208201905081810360008301526132ed816132b1565b9050919050565b7f4552433732313a20617070726f76652063616c6c6572206973206e6f7420746f60008201527f6b656e206f776e6572206e6f7220617070726f76656420666f7220616c6c0000602082015250565b6000613350603e83612ce6565b915061335b826132f4565b604082019050919050565b6000602082019050818103600083015261337f81613343565b9050919050565b7f6f6e6c792061646d696e2063616e2063616c6c2066756e6374696f6e00000000600082015250565b60006133bc601c83612ce6565b91506133c782613386565b602082019050919050565b600060208201905081810360008301526133eb816133af565b9050919050565b7f4552433732313a2063616c6c6572206973206e6f7420746f6b656e206f776e6560008201527f72206e6f7220617070726f766564000000000000000000000000000000000000602082015250565b600061344e602e83612ce6565b9150613459826133f2565b604082019050919050565b6000602082019050818103600083015261347d81613441565b9050919050565b7f6e6f74206f776e6572206f6620746f6b656e0000000000000000000000000000600082015250565b60006134ba601283612ce6565b91506134c582613484565b602082019050919050565b600060208201905081810360008301526134e9816134ad565b9050919050565b7f4552433732313a20696e76616c696420746f6b656e2049440000000000000000600082015250565b6000613526601883612ce6565b9150613531826134f0565b602082019050919050565b6000602082019050818103600083015261355581613519565b9050919050565b7f636f6e7472616374206973206e6f74206c697665207965740000000000000000600082015250565b6000613592601883612ce6565b915061359d8261355c565b602082019050919050565b600060208201905081810360008301526135c181613585565b9050919050565b7f506c65617365207061792066756c6c206d696e74696e67206665650000000000600082015250565b60006135fe601b83612ce6565b9150613609826135c8565b602082019050919050565b6000602082019050818103600083015261362d816135f1565b9050919050565b7f6d6178206e667473206d696e7465640000000000000000000000000000000000600082015250565b600061366a600f83612ce6565b915061367582613634565b602082019050919050565b600060208201905081810360008301526136998161365d565b9050919050565b600081905092915050565b60008190508160005260206000209050919050565b600081546136cd81613231565b6136d781866136a0565b945060018216600081146136f257600181146137075761373a565b60ff198316865281151582028601935061373a565b613710856136ab565b60005b8381101561373257815481890152600182019150602081019050613713565b838801955050505b50505092915050565b600061374e82612cdb565b61375881856136a0565b9350613768818560208601612cf7565b80840191505092915050565b7f2e6a736f6e000000000000000000000000000000000000000000000000000000600082015250565b60006137aa6005836136a0565b91506137b582613774565b600582019050919050565b60006137cc82856136c0565b91506137d88284613743565b91506137e38261379d565b91508190509392505050565b7f4552433732313a2061646472657373207a65726f206973206e6f74206120766160008201527f6c6964206f776e65720000000000000000000000000000000000000000000000602082015250565b600061384b602983612ce6565b9150613856826137ef565b604082019050919050565b6000602082019050818103600083015261387a8161383e565b9050919050565b7f6e6f74206f6e2077686974656c69737400000000000000000000000000000000600082015250565b60006138b7601083612ce6565b91506138c282613881565b602082019050919050565b600060208201905081810360008301526138e6816138aa565b9050919050565b7f77686974656c697374206d696e74696e67206973206e6f74206c697665000000600082015250565b6000613923601d83612ce6565b915061392e826138ed565b602082019050919050565b6000602082019050818103600083015261395281613916565b9050919050565b7f6d61782077686974656c697374206e667473206d696e74656400000000000000600082015250565b600061398f601983612ce6565b915061399a82613959565b602082019050919050565b600060208201905081810360008301526139be81613982565b9050919050565b7f4552433732313a207472616e736665722066726f6d20696e636f72726563742060008201527f6f776e6572000000000000000000000000000000000000000000000000000000602082015250565b6000613a21602583612ce6565b9150613a2c826139c5565b604082019050919050565b60006020820190508181036000830152613a5081613a14565b9050919050565b7f4552433732313a207472616e7366657220746f20746865207a65726f2061646460008201527f7265737300000000000000000000000000000000000000000000000000000000602082015250565b6000613ab3602483612ce6565b9150613abe82613a57565b604082019050919050565b60006020820190508181036000830152613ae281613aa6565b9050919050565b7f4e487b7100000000000000000000000000000000000000000000000000000000600052601160045260246000fd5b6000613b2382612d8d565b9150613b2e83612d8d565b9250828203905081811115613b4657613b45613ae9565b5b92915050565b6000613b5782612d8d565b9150613b6283612d8d565b9250828201905080821115613b7a57613b79613ae9565b5b92915050565b6000613b8b82612d8d565b91507fffffffffffffffffffffffffffffffffffffffffffffffffffffffffffffffff8203613bbd57613bbc613ae9565b5b600182019050919050565b7f4e487b7100000000000000000000000000000000000000000000000000000000600052601260045260246000fd5b6000613c0282612d8d565b9150613c0d83612d8d565b925082613c1d57613c1c613bc8565b5b828204905092915050565b6000613c3382612d8d565b9150613c3e83612d8d565b925082613c4e57613c4d613bc8565b5b828206905092915050565b7f4e487b7100000000000000000000000000000000000000000000000000000000600052603260045260246000fd5b7f45524337323155524953746f726167653a2055524920736574206f66206e6f6e60008201527f6578697374656e7420746f6b656e000000000000000000000000000000000000602082015250565b6000613ce4602e83612ce6565b9150613cef82613c88565b604082019050919050565b60006020820190508181036000830152613d1381613cd7565b9050919050565b60006020601f8301049050919050565b600082821b905092915050565b600060088302613d677fffffffffffffffffffffffffffffffffffffffffffffffffffffffffffffffff82613d2a565b613d718683613d2a565b95508019841693508086168417925050509392505050565b6000819050919050565b6000613dae613da9613da484612d8d565b613d89565b612d8d565b9050919050565b6000819050919050565b613dc883613d93565b613ddc613dd482613db5565b848454613d37565b825550505050565b600090565b613df1613de4565b613dfc818484613dbf565b505050565b5b81811015613e2057613e15600082613de9565b600181019050613e02565b5050565b601f821115613e6557613e36816136ab565b613e3f84613d1a565b81016020851015613e4e578190505b613e62613e5a85613d1a565b830182613e01565b50505b505050565b600082821c905092915050565b6000613e8860001984600802613e6a565b1980831691505092915050565b6000613ea18383613e77565b9150826002028217905092915050565b613eba82612cdb565b67ffffffffffffffff811115613ed357613ed2613014565b5b613edd8254613231565b613ee8828285613e24565b600060209050601f831160018114613f1b5760008415613f09578287015190505b613f138582613e95565b865550613f7b565b601f198416613f29866136ab565b60005b82811015613f5157848901518255600182019150602085019450602081019050613f2c565b86831015613f6e5784890151613f6a601f891682613e77565b8355505b6001600288020188555050505b505050505050565b7f4552433732313a20617070726f766520746f2063616c6c657200000000000000600082015250565b6000613fb9601983612ce6565b9150613fc482613f83565b602082019050919050565b60006020820190508181036000830152613fe881613fac565b9050919050565b7f4552433732313a207472616e7366657220746f206e6f6e20455243373231526560008201527f63656976657220696d706c656d656e7465720000000000000000000000000000602082015250565b600061404b603283612ce6565b915061405682613fef565b604082019050919050565b6000602082019050818103600083015261407a8161403e565b9050919050565b600061408d8285613743565b91506140998284613743565b91508190509392505050565b600081519050919050565b600082825260208201905092915050565b60006140cc826140a5565b6140d681856140b0565b93506140e6818560208601612cf7565b6140ef81612d21565b840191505092915050565b600060808201905061410f6000830187612e22565b61411c6020830186612e22565b6141296040830185612f0b565b818103606083015261413b81846140c1565b905095945050505050565b60008151905061415581612c4c565b92915050565b60006020828403121561417157614170612c16565b5b600061417f84828501614146565b91505092915050565b7f4552433732313a206d696e7420746f20746865207a65726f2061646472657373600082015250565b60006141be602083612ce6565b91506141c982614188565b602082019050919050565b600060208201905081810360008301526141ed816141b1565b9050919050565b7f4552433732313a20746f6b656e20616c7265616479206d696e74656400000000600082015250565b600061422a601c83612ce6565b9150614235826141f4565b602082019050919050565b600060208201905081810360008301526142598161421d565b905091905056fea264697066735822122079d4715969fd96bde62f2661cc0a49e70c8ef42e2cc9c0d749badabcf6ba111664736f6c6343000811003368747470733a2f2f697066732e696f2f697066732f516d56586a4d436233514c7373444a366f71366e37377652377a5050546d4e616a31396e32317571324e364a53692f",
  "linkReferences": {},
  "deployedLinkReferences": {}
}